{
  "contractName": "FlashLoanReceiverBase",
  "abi": [
    {
      "constant": true,
      "inputs": [],
      "name": "addressesProvider",
      "outputs": [
        {
          "name": "",
          "type": "address"
        }
      ],
      "payable": false,
      "stateMutability": "view",
      "type": "function"
    },
    {
      "inputs": [
        {
          "name": "_provider",
          "type": "address"
        }
      ],
      "payable": false,
      "stateMutability": "nonpayable",
      "type": "constructor"
    },
    {
      "payable": true,
      "stateMutability": "payable",
      "type": "fallback"
    }
  ],
  "bytecode": "0x608060405234801561001057600080fd5b506040516100f43803806100f48339818101604052602081101561003357600080fd5b5051600080546001600160a01b039092166001600160a01b03199092169190911790556090806100646000396000f3fe608060405260043610601c5760003560e01c8063c72c4d1014601e575b005b348015602957600080fd5b506030604c565b604080516001600160a01b039092168252519081900360200190f35b6000546001600160a01b03168156fea265627a7a72305820742261e5a11f7bbf97b8f025df9854741bd3fb3c4acdf5d4479aa20d3953af4e64736f6c634300050a0032",
  "source": "pragma solidity ^0.5.0;\n\nimport \"@openzeppelin/contracts/math/SafeMath.sol\";\nimport \"@openzeppelin/contracts/token/ERC20/IERC20.sol\";\nimport \"@openzeppelin/contracts/token/ERC20/SafeERC20.sol\";\nimport \"./ILendingPoolAddressesProvider.sol\";\n\ncontract FlashLoanReceiverBase {\n\n    using SafeERC20 for IERC20;\n    using SafeMath for uint256;\n\n    ILendingPoolAddressesProvider public addressesProvider;\n\n    constructor(ILendingPoolAddressesProvider _provider) public {\n        addressesProvider = _provider;\n    }\n\n    function () external payable {\n    }\n\n    function ethAddress() internal pure returns(address) {\n        return 0xEeeeeEeeeEeEeeEeEeEeeEEEeeeeEeeeeeeeEEeE;\n    }\n\n    function transferFundsBackToPoolInternal(address _reserve, uint256 _amount) internal {\n\n        address payable core = addressesProvider.getLendingPoolCore();\n\n        transferInternal(core,_reserve, _amount);\n    }\n\n    function transferInternal(address payable _destination, address _reserve, uint256  _amount) internal {\n        if(_reserve == ethAddress()) {\n            //solium-disable-next-line\n            _destination.call.value(_amount)(\"\");\n            return;\n        }\n\n        IERC20(_reserve).safeTransfer(_destination, _amount);\n\n\n    }\n\n    function getBalanceInternal(address _target, address _reserve) internal view returns(uint256) {\n        if(_reserve == ethAddress()) {\n\n            return _target.balance;\n        }\n\n        return IERC20(_reserve).balanceOf(_target);\n\n    }\n}",
  "sourcePath": "/Users/aparnakrishnan/Desktop/Opyn/Liquidator/contracts/FlashLoanReceiverBase.sol",
  "compiler": {
    "name": "solc",
    "version": "0.5.10+commit.5a6ea5b1.Emscripten.clang"
  },
  "schemaVersion": "3.0.17",
  "updatedAt": "2020-02-06T01:58:08.527Z",
  "devdoc": {
    "methods": {}
  },
  "userdoc": {
    "methods": {}
  }
}